:020000021000EC
:10200000A87C0020C1DE0200B9DF0200B9DF0200B7
:1020100000000000000000000000000000000000C0
:10202000000000000000000000000000C1CE010020
:102030000000000000000000E1CF010029D00100F5
:10204000B9DF0200B9DF0200B9DF020011A002000F
:102050003D950200B9DF02007D420100B9DF0200B8
:10206000C1430100B5A60200CDA60200E5A602000C
:10207000FDA6020015A702002DA7020009DE02003E
:102080001DDE020031DE0200ADAB0100C1AB01007C
:10209000D5AB010000000000000000000541010078
:1020A000B9DF020041420100B9DF0200B9DF0200DE
:1020B0000000000010B5064C2378002B07D1054B1B
:1020C000002B02D0044800E000BF0123237010BDA4
:1020D000800300200000000054E90300084B10B505
:1020E000002B03D00749084800E000BF07480368F9
:1020F000002B00D110BD064B002BFBD09847F9E711
:10210000000000008403002054E9030054E90300A8
:102110000000000080B584B000AF0200FB1D1A7003
:102120000F23FB18FA1D1278D2091A700E23FB1820
:10213000FA1D127852091A700D4BBB600F23FB1861
:102140001B78002B0FD10F23FB181B789B0010224C
:102150009446BC446344083B1A680E23FB181B7862
:10216000DB01D31800E000231800BD4604B080BD99
:102170000044004180B582B000AF0200FB1D1A7020
:10218000064BFA1D127811001F220A4001219140CE
:102190000A001A60C046BD4602B080BD00E100E002
:1021A00080B582B000AF0200FB1D1A70FB1D1B78CA
:1021B0001800034B984703001800BD4602B080BDCD
:1021C0001521010080B582B000AF78607B680022E5
:1021D0001A707B6801225A707B6800229A70C04690
:1021E000BD4602B080BD000080B584B000AF0200E3
:1021F000FB1D1A70BB1D0A1C1A70FB1D1B781800F2
:102200000D4B98470300FB60FB1D1B781F221340FA
:1022100001229A401300BB60BB1D1B78002B03D02A
:10222000FB68BA689A6102E0FB68BA685A61C04606
:10223000BD4604B080BDC046A121010080B584B078
:1022400000AF78607B681B68FB60FB68DB695A1E27
:102250009341DBB21800BD4604B080BD80B582B0AA
:1022600000AF78607B6801221A707B6800225A6098
:102270007B6800229A607B68C0229203DA607B68E8
:1022800000221A747B6800225A747B6801229A74B7
:102290007B680122DA747B6800221A757B6824222D
:1022A000002199547B6818330C22002118000A4B36
:1022B00098477B68094A9A617B6800229A627B682A
:1022C0000022DA627B6800221A637B6800225A636C
:1022D000C046BD4602B080BD07850300A086010050
:1022E00080B582B000AF78607B680A221A707B6884
:1022F00000225A707B6800229A70C046BD4602B028
:1023000080BD000080B584B000AF786039603B6864
:102310001A787B681A703B685A787B685A703B68F9
:102320009A787B689A700C23FB1818000B4B98471F
:102330000C23FB1801221A707B681B780C22BA1838
:1023400011001800064B98477B681B780121180084
:10235000044B9847C046BD4604B080BDC52101006E
:10236000A1990200E921010080B584B000AF786036
:102370007B681B68FB607B681B6818000B4B9847E9
:10238000030018000A4B9847C0467B681800094BA9
:102390009847031EF9D1FB681B6802221A43FB68A9
:1023A0001A60C046BD4604B080BDC04671A602009A
:1023B000752101003D22010080B582B000AF02000E
:1023C000FB1D1A70104B9847FB1D01331A000F4B71
:1023D0005A600F4A0E494023CB5CDBB202210B430B
:1023E000D9B24023D154C046094A4E23D35CDBB254
:1023F000022BF9D1064A4E230721D154054B9847A9
:10240000C046BD4602B080BD31F2010050460020FA
:102410000048004149F2010080B500AF194A5369F4
:1024200020210B435361174AD36910210B43D36119
:10243000154B164A5A63144B154A9A63124B154AA8
:102440001A80124B144A1A80104B01225A80134BE7
:102450001B6828331A000D4B9A60114B1A000B4B66
:102460005A600A4B0022DA60074A3F230021D15408
:10247000054B0C4A5A64044A4D230221D154C046EC
:10248000BD4680BD00040040004800415046002089
:1024900060460020020F000001140000B04600203A
:1024A0009D030020000C800080B584B000AF7860F0
:1024B00039600E23FB187A6812881A803B68002264
:1024C0009A5E7B681A803B680E22BA1812881A80BE
:1024D000C046BD4604B080BD80B500AF034B80222E
:1024E00012011A60C046BD4680BDC046144400417A
:1024F00080B500AF034B802212011A60C046BD4672
:1025000080BDC0461844004180B582B000AF0200D3
:10251000FB1D1A70FB1D1B781800034B9847C04623
:10252000BD4602B080BDC046B923010080B584B06D
:1025300000AF0200BB1D1A80BB1D1B881B0A9AB28C
:102540000F23FB181A700F23FB181B781800064B7B
:102550009847BB1D1B88DBB21800034B9847C04649
:10256000BD4604B080BDC046B923010080B584B02B
:1025700000AF0200BB1D1A800F4B98470F4B802203
:10258000D2001A60BB1D1B881B0A9AB20F23FB18CE
:102590001A700F23FB181B781800094B9847BB1DB6
:1025A0001B88DBB21800064B9847064B9847C0467D
:1025B000BD4604B080BDC046D92401001844004186
:1025C000B9230100F124010080B584B000AF786028
:1025D0000A00FB1C1A700F23FB18FA1C12781A70E1
:1025E000294B984740E0294B8022D2001A607B6833
:1025F0005A1C7A601B781800254B98477B685A1C38
:102600007A600E22BA181B781370224B8022D200F7
:102610001A6006E07B685A1C7A601B7818001C4B15
:1026200098470E23FB181B780E22BA18591E1170FA
:10263000002BEFD17B685A1C7A600D22BA181B78E8
:1026400013700D23FB181B78002B0DD00D23FB18E6
:102650001B78FF2B03D00D23FB181B7801E0FA2316
:102660005B0018000C4B98470F23FB181B780F22B8
:10267000BA18591E1170002BB5D1084B9847C046A7
:10268000BD4604B080BDC046D924010014440041B9
:102690000925010018440041B1300200F124010075
:1026A00080B582B000AF3B1D01221A706420114B2F
:1026B00098473B1D190036200F4B984700213620C4
:1026C0000E4B984732200B4B9847012136200B4B7D
:1026D00098473B1D19000A20074B984701210A2003
:1026E000064B98476420034B9847C046BD4602B04E
:1026F00080BDC046B1300200A1990200E92101006D
:1027000080B590B000AF3B1D18001D4B98473B1D96
:102710000B221A703A1D1B4B110018001A4B9847D8
:102720000823FB181800194B98470823FB18982218
:102730005203DA600823FB18154A9A620823FB1833
:10274000144ADA620823FB18012252421A63082352
:10275000FB18114A5A630823FB18104A9A61082390
:10276000FA180F490F4B18000F4B98470D4B1800E4
:102770000E4B98470E4B9847C046BD4610B080BDE3
:10278000E1220100EC460020052301005D2201004A
:1027900003002200030023000200150000366E0132
:1027A000001C0042B046002021AE02006923010057
:1027B0001924010090B583B000AF04000800110097
:1027C000FB1D221C1A70BB1D021C1A707B1D0A1CEB
:1027D0001A70FB1D1B781A1D13005B019A1A144B0B
:1027E000FF21100098470300DB021CB2BB1D1B78C1
:1027F0009A1C13009B019A1A0D4BFF211000984759
:1028000003005B011BB223431CB27B1D1B781A1D06
:1028100013005B019A1A064BFF2110009847030032
:102820001BB223431BB29BB21800BD4603B090BD40
:10283000055B030080B500AF0A4B9847FA239B0065
:102840001800094B9847094B9847FA239B0018003A
:10285000054B9847064B16211800064B9847C04673
:10286000BD4680BDA1260100B13002000127010054
:1028700000000020C9250100B0B588B000AF0500F8
:102880000C0010001900FB1D2A1C1A70BB1D221C15
:102890001A707B1D021C1A703B1D0A1C1A700C2337
:1028A000FB182A221A700C23FB1804225A700C23DE
:1028B000FB1800229A700C23FB18FA1D1278DA70AC
:1028C0000C23FB1800221A710C23FB187A1D1278B6
:1028D0005A710C23FB1800229A710C23FB182B222F
:1028E000DA710C23FB1804221A720C23FB18002245
:1028F0005A720C23FB18BA1D12789A720C23FB181B
:102900000022DA720C23FB183A1D12781A730C237A
:10291000FB1800225A730C23FB182C229A730C23E9
:10292000FB180022DA730C23FB1805221A740C23FF
:10293000FB1803211800034B9847C046BD4608B05A
:10294000B0BDC046C925010090B583B000AF0400FA
:1029500008001100FB1D221C1A70BB1D021C1A70FE
:102960003B1D0A1C1A80BB1D1C78FB1D1A78BB1D61
:102970001978FB1D18782300054CA0473B1D1B88C8
:102980001800044B9847C046BD4603B090BDC046F2
:10299000792801006D250100B0B584B000AF0500B5
:1029A0000C0010001900FB1D2A1C1A70BB1D221CF4
:1029B0001A707B1D021C1A703B1D0A1C1A70FB1D2D
:1029C0001A787B1D1B789A4205D97A1DFB1D1100D0
:1029D0001800214B9847BB1D1A783B1D1B789A4263
:1029E00005D93A1DBB1D110018001B4B9847FB1D54
:1029F0001878BB1D19787B1D1A783B1D1B78174C66
:102A0000A047174B9847174B8022D2001A6000232B
:102A1000FB6008E02023FB181B881800124B984726
:102A2000FB680133FB607B1D1B781A00FB1D1B78C4
:102A3000D31A01333A1D12781100BA1D12788A1A7E
:102A400001325A43FB689A42E4DC084B9847C0467F
:102A5000BD4604B0B0BDC046A924010079280100DC
:102A6000D9240100184400412D250100F124010062
:102A700090B585B000AF0200BB1D1A808023A02254
:102A8000002100200E4CA0470E4B98470E4B802291
:102A9000D2001A600023FB6007E0BB1D1B881800F2
:102AA0000A4B9847FB680133FB60FB68084A934276
:102AB000F3DD084B9847C046BD4605B090BDC04603
:102AC00079280100D9240100184400412D25010076
:102AD000FF4F0000F1240100B0B586B000AF050043
:102AE0000C0010001900BB1D2A1C1A803B1D221C63
:102AF0001A80BB1C021C1A803B000A1C1A803B0077
:102B000000229B5E1A003B1D00215B5ED31AD91781
:102B10005A184A40BB1C00215B5E1900BB1D0020F7
:102B20001B5ECB1AD9175B184B4001219A4201DC7E
:102B30000023191CCAB21223FB181A801223FB1897
:102B400000229B5E002B0BD03A1DBB1D110018000C
:102B50005A4B98473A00BB1C11001800574B984736
:102B6000BB1D00229A5EBB1C00215B5E9A420BDDFE
:102B7000BA1CBB1D11001800504B98473A003B1D72
:102B8000110018004D4B9847BB1C00229B5E9AB267
:102B9000BB1D00215B5E9BB2D31A9AB21023FB18B7
:102BA0001A803B0000229B5E1A003B1D00215B5EE9
:102BB000D31AD9175A184A400E23FB181A80162325
:102BC000FA181023FB1800215B5E002B00DA01339A
:102BD0005B1013803B1D00229A5E3B0000215B5E70
:102BE0009A4204DA1423FB1801221A8059E01423B4
:102BF000FB18012252421A8053E01223FB180022D4
:102C00009B5E002B0ED03B1D00229B5ED8B2BB1DED
:102C100000229B5EDBB22822BA1812881900284BCA
:102C200098470DE0BB1D00229B5ED8B23B1D0022E1
:102C30009B5EDBB22822BA1812881900204B9847F5
:102C40001623FB181A880E23FB181B88D31A9AB276
:102C50001623FB181A801623FB1800229B5E002BFC
:102C600016DA3B1D00229B5E9AB21423FB181B88C8
:102C7000D3189BB21AB23B1D1A801623FB181A8870
:102C80001023FB181B88D3189AB21623FB181A803E
:102C9000BB1D00229B5E9BB201339BB21AB2BB1DCF
:102CA0001A80BB1D00229A5EBB1C00215B5E9A420B
:102CB000A3DDC046BD4606B0B0BDC046A924010094
:102CC0004929010090B585B000AF0200FB1D1A70C4
:102CD0003B1D0A1C1A80FB1D1A78FB1D18788023E7
:102CE00000210E4CA0470E4B98470E4B8022D2007D
:102CF0001A600023FB6007E03B1D1B8818000A4B8D
:102D00009847FB680133FB60FB687F2BF4DD074BC2
:102D10009847C046BD4605B090BDC0467928010021
:102D2000D9240100184400412D250100F12401009F
:102D300090B585B000AF0200FB1D1A703B1D0A1C48
:102D40001A80FB1D1A78FB1D19781300A0220020A1
:102D50000D4CA0470D4B98470D4B8022D2001A60B6
:102D60000023FB6007E03B1D1B881800094B9847B8
:102D7000FB680133FB60FB689F2BF4DD064B984733
:102D8000C046BD4605B090BD79280100D924010098
:102D9000184400412D250100F1240100B0B586B092
:102DA00000AF05000C0010001900FB1D2A1C1A7052
:102DB000BB1D221C1A703B1D021C1A80BB1C0A1C66
:102DC0001A800E23FB183A1D1288203A1A80FB1D28
:102DD0001B78A022D31A072B52DDBB1D1B78802243
:102DE000D31A072B4CDD00237B6146E00E23FB1832
:102DF0001A880D23F918244813009B009B18C21849
:102E00007B69D3181B780B7000233B612FE00D23E7
:102E1000FB181A783B691A4113000122134011D0A4
:102E20007B69DAB2FB1D1B78D318D8B23B69DAB2E2
:102E3000BB1D1B78D318D9B2BB1C1B881A00134BBF
:102E4000984711E07B69DAB2FB1D1B78D318D8B222
:102E50003B69DAB2BB1D1B78D318DBB22822BA1843
:102E600012881900094B98473B6901333B613B6964
:102E7000072BCCDD7B6901337B617B69042BB5DDDE
:102E8000C046BD4606B0B0BDC89803004929010040
:102E9000B0B588B002AF05000C0010001900FB1D92
:102EA0002A1C1A70BB1D221C1A703B1D021C1A80A2
:102EB000BB1C0A1C1A800E23FB183A1D1288203AEC
:102EC0001A80FB1D1B780533DAB2BB1D1B78093352
:102ED000DCB2BB1D1978FB1D18782823FB181B8852
:102EE00000932300264CA047FB1D1B78A022D31A79
:102EF000042B41DDBB1D1B788022D31A072B3BDD41
:102F000000237B6135E00E23FB181A880D23F91886
:102F10001C4813009B009B18C2187B69D3181B78B0
:102F20000B7000233B611EE00D23FB181A783B69F0
:102F30001A4113000122134012D07B69DAB2FB1D43
:102F40001B78D318D8B23B69DAB2BB1D1B78D318F3
:102F5000DBB20133D9B2BB1C1B881A000A4B98475D
:102F60003B6901333B613B69082BDDDD7B69013344
:102F70007B617B69042BC6DDC046BD4606B0B0BD93
:102F800099290100C89803004929010090B587B02C
:102F900002AF040008003A601900FB1D221C1A70E1
:102FA000BB1D021C1A703B1D0A1C1A800023FB600B
:102FB0001CE0FB68DBB21A1C9200D318DAB2FB1DCE
:102FC0001B78D318D8B2FB683A68D3181B789AB22A
:102FD0003B1D1C88BB1D19782023FB181B88009300
:102FE0002300074CA047FB680133FB60FB683A688D
:102FF000D3181B78002BDCD1C046BD4605B090BD70
:10300000912E010090B58DB002AFF860B9607A6082
:103010001A00FB1C1A707B685B427B6200233B62D8
:103020007B680122D31A5B00FB61FA687B6AD31AC2
:10303000BB61FA687B6AD3187B61FB1C1B78002B91
:103040001AD0BB6918B2BB689AB23B6A9BB2D3185C
:103050009BB219B27B691CB2BB689AB23B6A9BB245
:10306000D3189BB21AB23823FB181B8800931300A5
:103070002200224CA04719E0BB6918B2BB689AB283
:103080003B6A9BB2D31A9BB219B27B691CB2BB6874
:103090009AB23B6A9BB2D31A9BB21AB23823FB187E
:1030A0001B88009313002200144CA047FB697B602F
:1030B0007A683B6A9A4208DC3B6A01333B623B6AAE
:1030C0005B000133FA69D318FB617A687B6A9A4224
:1030D00003DCFA693B6A9A4208DD7B6A01337B6252
:1030E0007B6A5B000133FA69D318FB617B6A002BB2
:1030F0009BDBC046BD460BB090BDC046D92A01003F
:1031000090B589B002AFF860B9607A601A00BB1C54
:103110001A807B68002B00DA01335B105B421A00D7
:10312000FB68D4187868384B032251429847030053
:103130001A00BB68D1187B68002B00DA01335B10E2
:103140001A00BB1C1B880093002320002F4CA047B3
:103150007B68002B00DA01335B101A00FB68D4187F
:103160007868294B03225142984703001A00BB6834
:10317000D1187B68002B00DA01335B101A00BB1CEE
:103180001B88009300232000204CA04700237B6174
:1031900031E0FB689AB27B689BB2D31A9AB27B6922
:1031A0009BB2D3189BB218B2BB689AB27B699BB230
:1031B000D3189BB20D3B9BB219B2FB689AB27B68E5
:1031C0009BB2D3189AB27B699BB2D31A9BB21CB242
:1031D000BB689AB27B699BB2D3189BB20D3B9BB282
:1031E0001AB2BB1C1B88009313002200084CA04796
:1031F0007B6901337B617A697B689A42C9DBC0468F
:10320000BD4607B090BDC046055B03000530010018
:10321000D92A010090B589B002AF78607B681800A8
:103220001C4B9847020013005B009B185B001A00C0
:10323000A0239B1A5B083B610A23FB6000237B6190
:103240001BE07B69DBB21A1C131CDB189B18DB1814
:10325000DAB23B69DBB2D318D8B2FB68D9B27A686C
:103260007B69D3181B789AB20B4C00230093230080
:103270000A4CA0477B6901337B617B681800054BD2
:10328000984702007B699A42DBD8C046BD4607B02A
:1032900090BDC046BF880300E0FF00009D2D0100E7
:1032A00080B584B000AF78600A00BB1C1A80002390
:1032B000FB6029E0FB68DAB2BB1C1B881900100018
:1032C000154B9847FB68DAB2BB1C1B88190010002D
:1032D000124B9847FB68DBB27F22D31ADAB2BB1CD1
:1032E0001B88190010000C4B9847FB68DBB2612269
:1032F0005242D31ADAB2BB1C1B8819001000074BCC
:103300009847FB680133FB60FA687B689A42D1DB1F
:10331000C046BD4604B080BD312D0100C52C010062
:1033200090B58BB002AFF860B9607A601A00BB1C30
:103330001A807B685B42FB610023BB617B680122D2
:10334000D31A5B007B61FB689AB2FB699BB2D31A0C
:103350009BB218B2BB689AB2BB699BB2D31A9BB23C
:1033600019B2FB689AB2FB699BB2D31A9BB21CB22A
:10337000BB689AB2BB699BB2D3189BB21AB2BB1C92
:103380001B88009313002200254CA047FB689AB2CB
:10339000FB699BB2D3189BB218B2BB689AB2BB69E7
:1033A0009BB2D31A9BB219B2FB689AB2FB699BB26B
:1033B000D3189BB21CB2BB689AB2BB699BB2D3183C
:1033C0009BB21AB2BB1C1B88009313002200144C42
:1033D000A0477B697B607A68BB699A4208DCBB695D
:1033E0000133BB61BB695B0001337A69D3187B6130
:1033F0007A68FB699A4203DC7A69BB699A4208DD04
:10340000FB690133FB61FB695B0001337A69D31807
:103410007B61FB69002B96DDC046BD4609B090BDBF
:10342000D92A010090B589B000AFF860B9607A6020
:103430007B68002B00DA01335B10FB61FA69130033
:103440005B009B18002B00DA03339B10BB61FA6909
:10345000BB69D31A7B61FA68FB69D018BA68FB694B
:10346000D1180A4BFA690A4CA047FA68FB69D218CE
:103470007B69D018BA68FB69D118BA690023044C7B
:10348000A047C046BD4609B090BDC046E0FF000061
:103490002133010090B589B002AF78607B681800D5
:1034A0001C4B9847020013005B009B185B001A003E
:1034B000A0239B1A5B083B611E23FB6000237B61FA
:1034C0001BE07B69DBB21A1C131CDB189B18DB1892
:1034D000DAB23B69DBB2D318D8B2FB68D9B27A68EA
:1034E0007B69D3181B789AB20B4C002300932300FE
:1034F0000A4CA0477B6901337B617B681800054B50
:10350000984702007B699A42DBD8C046BD4607B0A7
:1035100090BDC046BF880300E0FF00009D2D010064
:1035200090B589B002AF78607B6818001C4B984753
:10353000020013005B009B185B001A00A0239B1A7B
:103540005B083B613C23FB6000237B611CE07B69E3
:10355000DBB21A1C131CDB189B18DB18DAB23B69B0
:10356000DBB2D318D8B2FB68D9B27A687B69D318BA
:103570001B789AB2FC23DC00002300932300094C43
:10358000A0477B6901337B617B681800044B984737
:1035900002007B699A42DAD8C046BD4607B090BDAA
:1035A000BF8803009D2D010090B58BB002AFF8607D
:1035B000B9607A601A00BB1C1A800023FB6181E0AD
:1035C000FB699B00BB61BB69002B00DA01335B1018
:1035D0005B421A00FB68D3187B61BB69002B00DAE1
:1035E00001335B105B421A00BB68D3183B617B69F7
:1035F00018B23B6919B27B699AB2BB699BB2D31806
:103600009BB21AB23B691CB2BB1C1B8800932300FF
:10361000314CA0477B699AB2BB699BB2D3189BB26D
:1036200018B23B6919B27B699AB2BB699BB2D318D5
:103630009BB21CB23B699AB2BB699BB2D3189BB2D6
:103640001AB2BB1C1B88009313002200224CA04717
:103650007B699AB2BB699BB2D3189BB218B23B6923
:103660009AB2BB699BB2D3189BB219B27B691CB2E8
:103670003B699AB2BB699BB2D3189BB21AB2BB1C0E
:103680001B88009313002200134CA0477B6918B2DB
:103690003B699AB2BB699BB2D3189BB219B27B69E2
:1036A0001AB23B691CB2BB1C1B88009323000A4C56
:1036B000A047FB680233FB60BB680233BB60FB6959
:1036C0000133FB61FA697B689A4200DA78E7C04609
:1036D000BD4609B090BDC046D92A010090B583B05F
:1036E00002AF0020184B9847184B19000320184BC5
:1036F0009847184B1800184B9847142204210A20A9
:10370000164B98471649174A002300930B002821AF
:103710001920154CA0471249144A002300930B00AE
:1037200050211920104CA0470D4B032241211E208F
:103730000F4CA0470A4B032269211E200C4CA047C6
:10374000C046BD4601B090BD712A0100FFFF0000D8
:10375000A1320100A89A03001532010025340100AE
:10376000E0FF0000B89A03008D2F0100C09A03000B
:1037700075370100B0B588B002AF05000C0010002D
:103780001900BB1D2A1C1A803B1D221C1A80BB1C61
:10379000021C1A803B000A1C1A80BB1C1B885B425F
:1037A0009AB21623FB181A801423FB1800221A80E1
:1037B000BB1C00229B5E0122D31A9BB2DB189AB27B
:1037C0001223FB181A80BB1D1A881623FB181B88AE
:1037D000D31A9BB218B23B1D1A881423FB181B88FE
:1037E000D3189BB219B2BB1D1A881623FB181B886D
:1037F000D3189BB21CB23B1D1A881423FB181B88DC
:10380000D3189BB21AB23B001B880093130022000E
:10381000444CA047BB1D1A881623FB181B88D31ADB
:103820009BB218B23B1D1A881423FB181B88D31AAD
:103830009BB219B2BB1D1A881623FB181B88D3181C
:103840009BB21CB23B1D1A881423FB181B88D31A89
:103850009BB21AB23B001B88009313002200314C2C
:10386000A0471223FB1800229B5EFB601423FB1869
:1038700000229A5EFB689A422ADB1423FB181B88FD
:1038800001339AB21423FB181A801423FB18002268
:103890009B5E5B0001339AB21223FB181B88D3187E
:1038A0009AB21223FB181A801623FB1800229B5E83
:1038B0005A421423FB1800215B5E9A4208D116235A
:1038C000FB1800229A5EFB689A4201DB0023FB6032
:1038D0001623FB1800229A5EFB689A4216DA16231A
:1038E000FB181B8801339AB21623FB181A80162383
:1038F000FB1800229B5E5B0001339AB21223FB1877
:103900001B88D3189AB21223FB181A801623FB18AF
:1039100000229B5E002B00DC55E7C046BD4606B08A
:10392000B0BDC046D92A010080B584B000AF020006
:10393000FB1D1A700F23FB18FA1D1278D2091A709A
:103940000E23FB18FA1D127852091A700D4BBB603A
:103950000F23FB181B78002B0FD10F23FB181B78AC
:103960009B0010229446BC446344083B1A680E2313
:10397000FB181B78DB01D31800E000231800BD46BC
:1039800004B080BD0044004180B582B000AF0200A9
:10399000FB1D1A70FB1D1B781800034B9847030092
:1039A0001800BD4602B080BD2939010080B582B043
:1039B00000AF78607B6800221A707B6801225A7021
:1039C0007B6800229A70C046BD4602B080BD0000F0
:1039D00080B584B000AF0200FB1D1A70FB1D1B7880
:1039E00018000B4B98470300FB60FB1D1B781F2240
:1039F000134001229A401300BB60FB681B6ABA683F
:103A000013405A1E9341DBB21800BD4604B080BD7E
:103A10008939010080B584B000AF0200FB1D1A7027
:103A2000BB1D0A1C1A70FB1D1B7818000D4B984714
:103A30000300FB60FB1D1B781F22134001229A40EC
:103A40001300BB60BB1D1B78002B03D0FB68BA685A
:103A50009A6102E0FB68BA685A61C046BD4604B08C
:103A600080BDC0468939010090B59BB002AF786037
:103A7000904B1800904B9847904B00221A7054239B
:103A8000FB1818008E4B98475423FB1800221A701D
:103A90005423FB1801225A705423FB1819001420D8
:103AA000884B98475023FB181800854B98475023A4
:103AB000FB1801221A705023FB1819000620814BB5
:103AC00098470023FB654F23FB1800221A704E23F2
:103AD000FB1800221A704D23FB1801221A70FB6D8F
:103AE000002B09D1FA235B001800774B9847774BDE
:103AF00098470123FB65EAE1FB6D012B28D11420D7
:103B0000734B984703001A0001235340DBB2002B8C
:103B10001BD0704B18006C4B984714206C4B984787
:103B200003001A0001235340DBB2002B06D06A4B7E
:103B30001800614B98470323FB65C8E1674B1800E9
:103B40005D4B98470223FB65C1E10123FB65BEE1A4
:103B5000FB6D022B00D0E5E001210620604B984769
:103B6000FA239B001800584B9847002106205C4B15
:103B7000984700205B4B9847F8231B02190003204D
:103B8000594B9847F8231902584A002300930B0019
:103B900014211520564CA047FF22FF21FF20554B32
:103BA000984703001900544A002300930B00232177
:103BB00015204F4CA047FF22FF21FF204D4B984777
:103BC000030019004C4A002300930B002321152009
:103BD000474CA047FA239B0018003B4B9847474BA4
:103BE0001800404B9847F8231B0228223C21502004
:103BF000434CA047434A414B0093002365211520C5
:103C00003B4CA047404A3D4B009300236F211520B9
:103C1000374CA0474D23FA184E23F9184F23FB18B1
:103C200018003A4B98474F23FB181B78002B13D1F1
:103C30004F23FB181B781A0035492C23FB1818005A
:103C4000344B98472C23FA182C4B00930023652102
:103C50001520274CA04712E04F23FB181B781A00B1
:103C60002D492C23FB1818002A4B98472C23FA18AF
:103C7000224B00930023652115201D4CA0474E23A5
:103C8000FB181B781A0025492C23FB181800214B20
:103C900098472C23FA18194B009300236F21152005
:103CA000134CA0471E4B1800074B98470023FB6599
:103CB0000DE1C046CC9A0300C50B0200EF46002080
:103CC000AD390100A1990200B1300200DD360100DA
:103CD000D1390100DC050000E09A0300F49A0300EA
:103CE000153A0100712A0100A1320100089B03006E
:103CF0008D2F0100B52701001C9B0300FFFF000072
:103D000001310100309B0300489B03003D77010017
:103D1000609B0300C58703007C9B0300989B030006
:103D2000204E0000FB6D032B00D0D0E001210620C7
:103D3000694B9847FA235B001800684B98470021AD
:103D40000620654B9847FA235B001800634B9847A1
:103D500001210620604B9847FA235B0018005F4B57
:103D60009847002106205C4B9847FA235B00180017
:103D70005A4B984700205A4B98471F210320594B14
:103D80009847594A002300931F2314211520574CAC
:103D9000A047FF22FF21FF20554B98470300190041
:103DA000544A002300930B00232115204F4CA047B9
:103DB000FF22FF21FF204E4B9847030019004D4A78
:103DC000002300930B0023211520484CA047FA2321
:103DD0009B001800414B98472B23FB1800221A70B8
:103DE000454B98470300BB652B23FA18BB6D1100A8
:103DF0001800424B98472B23FB181B78002B41D00F
:103E00003F4B00221A803E4ABB6D110018003D4B0B
:103E100098473B4B00229B5E18003B4B9847021C87
:103E20003A4B1A60394B1A68394B101C98470200FC
:103E300038491423FB181800374B98471423FB18F4
:103E40001800364B98470C23FB1800221A800C23CD
:103E5000FB1800225A800C23FB1800229A800C23A6
:103E6000FB1800229A71294B1A68294B101C98479D
:103E700003005AB20C23FB18DA710C23FB1818004C
:103E8000274B9847214B1A68214B101C984702007A
:103E900024491423FB1818001F4B98470020104B8F
:103EA0009847FF22FF21FF20114B9847030019007C
:103EB0001423FA18002300930B00322115200B4C19
:103EC000A047194B1800054B98470023FB6532208B
:103ED000164B984703E6C046153A0100B130020080
:103EE000712A0100A1320100B49B03008D2F010053
:103EF000B52701001C9B030015890100798301008F
:103F00009E030020B583010021830100A00300204F
:103F1000216A0300CC9B0300C5870300C50B020088
:103F2000E5A20100E49B0300204E000071EF0100B8
:103F300080B584B000AF78607B681B68FB60FB686D
:103F40005B7EDBB25BB2002B01DA012300E00023D1
:103F50001800BD4604B080BD80B584B000AF786065
:103F60007B681B68FB60C0467B6818000B4B98475A
:103F7000031EF9D1FB681B7BDBB202221343DAB2CA
:103F8000FB681A73C0467B681800044B9847031EF1
:103F9000F9D1C046BD4604B080BDC046313F0100E6
:103FA00080B584B000AF78600A00FB1C1A707B6893
:103FB0001B68FB60FB68FA1C12789A75C046BD4608
:103FC00004B080BD80B584B000AF0200FB1D1A7044
:103FD000FB1D1A78474B9200D358FB60FB681B68A7
:103FE0001B7EDAB2FB681B68DB7DDBB21340DBB201
:103FF000BB60BB680122134045D0FB681B680122EF
:104000001A76C046FB6818003B4B9847031EF9D14F
:10401000FB685B69991CFA685161FA681268528BF7
:1040200092B21A80FB681B8B9BB2013B9BB2FA6871
:10403000191C1183002B08D0FB685B7F002B22D05A
:10404000FB6818002D4B98471DE0FB680121180004
:104050002B4B9847FB681B7FDBB2052B13D1FB680A
:1040600000221A77FB68DB7E1A00012313400AD076
:10407000FB689B7E1A000123134004D0FB689B68F9
:10408000FA6810009847BB680422134014D0FB68FC
:104090001B6804221A76FB68DB7E1A000223134099
:1040A0000AD0FB689B7E1A000223134004D0FB68F1
:1040B000DB68FA6810009847BB680222134014D0EE
:1040C000FB681B6802221A76FB68DB7E1A00042359
:1040D00013400AD0FB689B7E1A000423134004D0CF
:1040E000FB681B69FA6810009847C046BD4604B0DB
:1040F00080BDC046F0460020313F0100593F01001D
:10410000A13F010080B500AF0020024B9847C04698
:10411000BD4680BDC53F010080B582B000AF020042
:10412000FB1D1A70074AFB1D1B7819001F230B404B
:10413000012199400B0019008023D150C046BD4693
:1041400002B080BD00E100E080B584B000AF0200A5
:10415000FB1D1A70FB1D1A78374B9200D358FB6079
:10416000FB681B68BB60BB689B79DBB21A0001234C
:1041700013400ED0BB6801229A71FB681433002BE8
:1041800007D0FB685B7C002B03D0FB689B69002099
:104190009847BB689B79DBB21A000223134047D0D3
:1041A000BB6802229A71FB689B899BB2002B33D0BB
:1041B000FB689A68FB68DB899BB2591C88B2F96876
:1041C000C8815B00D3181B889AB2BB689A81FB68D0
:1041D0009B899BB2013B9AB2FB689A81FB689B89E1
:1041E0009BB2002B18D1FB68202200219954BB6898
:1041F00002221A71BB6802229A7119200F4B98474C
:10420000FB681433002B07D0FB689B7C002B03D08A
:10421000FB68DB6900209847FB681433002B07D04C
:10422000FB681B7C002B03D0FB685B690020984770
:10423000C046BD4604B080BDF446002019410100CF
:1042400080B500AF0020024B9847C046BD4680BDF8
:104250004941010080B500AF024B9847C046BD46BA
:1042600080BDC0469D91020080B500AF024B9847CB
:10427000C046BD4680BDC046F191020080B586B003
:1042800000AF494B9847494B1B8C9BB2DAB21723BE
:10429000FB180F210A401A701723FB181A78444B99
:1042A0009200D3583B61414A3B691B780F210B4078
:1042B000D9B23F23D1543D490F23FB184E228A5CCB
:1042C0001A703B691B783B4A1B01D31802331B88C9
:1042D0009BB2BB603B691B78374A1B01D318023382
:1042E0001B889BB27B60BA687B68D21A3B695A61B3
:1042F0000F23FB181B780122134016D02B4A4E23A4
:104300000121D1543B6910225A743B691B7C1A006D
:104310000123134042D03B695B68002B3ED03B69D0
:104320005B683A691000984738E00F23FB181B7848
:104330000222134016D01D4A4E230221D1543B695C
:1043400000225A743B691B7C1A000223134025D0BB
:104350003B699B68002B21D03B699B683A69100040
:1043600098471BE00F23FB181B780422134015D03D
:104370000E4A4E230421D1543B6906225A743B69EC
:104380001B7C1A000423134008D03B69DB68002B18
:1043900004D03B69DB683A6910009847074B98479F
:1043A000C046BD4606B080BD5542010000480041F0
:1043B0000004002000470020B003002069420100F3
:1043C00080B582B000AF154B1B697B60144B9B69B5
:1043D0003B60124B9A683B681A43104B9A60104B33
:1043E000104A9A6108E07B685A687B681B6818006D
:1043F00090477B689B687B607B68002BF3D1074B01
:10440000DB683B60054B9B683A68D2431A40034B1C
:104410009A60C046BD4602B080BDC04688000020FC
:1044200000040042FFFF0F0F80B582B000AF020012
:104430003960FB1D1A70FB1D1B78012B0AD0022B63
:104440000FD0002B14D10E4B0D4A91693A680A43E4
:104450009A610FE00A4B0A4AD1693A680A43DA6165
:1044600008E0074B064A116A3A680A431A6201E0FB
:10447000172300E000231800BD4602B080BDC046EF
:104480000004004080B500AF02210220074B98478E
:10449000074B01221A70C046054B1B78DBB21A008D
:1044A00001231340F8D1C046BD4680BD2944010018
:1044B0000004004280B584B000AF78607B681B6860
:1044C000FB60FB68DB69072213405A1E9341DBB295
:1044D0001800BD4604B080BD80B582B000AF7860E2
:1044E000C0467B681800044B9847031EF9D1C046AC
:1044F000BD4602B080BDC046B544010080B584B061
:1045000000AF78607B681B68FB60FB681B681B0161
:10451000DB0FDBB21A000B23FB18511E8A411A7005
:104520000823FB187A68528B1A807B689B8B9AB29F
:104530000823FB180821791809888A1A1A807B68D1
:104540009B8B9BB2013B9AB27B689A830B23FB182F
:104550001B78002B10D07B68DB7A002B1CD07B688B
:104560009B8B9BB2012B17D1FB685B688022D20228
:104570001A43FB685A600FE07B68DB7A002B0BD094
:104580007B689B8B9BB2002B06D1FB685B6880220B
:10459000D2021A43FB685A607B689B8B9BB2002B4C
:1045A0000ED17B689B7A002B0AD07B6818000E4BDB
:1045B0009847FB685B68C02292021A43FB685A6006
:1045C0007B681800084B98477B681A6A0823FB1819
:1045D0001B88D318FA682821525CD2B21A70C046E0
:1045E000BD4604B080BDC046D944010080B584B04A
:1045F00000AF78607B681B68FB60FB685B8B9BB2DD
:104600001A000423134004D07B6825221E219954EC
:1046100024E00A23FB187A68528B1A807B689B8BF4
:104620009AB20A23FB180A21791809888A1A1A8073
:104630007B689B8B9BB2013B9AB27B689A837B68B9
:104640001800084B98477B681A6A0A23FB181B88D6
:10465000D3181B78D9B2FB6828229954BD4604B000
:1046600080BDC046D944010080B584B000AF7860F9
:104670007B681B68FB60FB681B7EDBB21A000123B2
:1046800013402BD0FB6801221A76FB685B8B9BB230
:104690001A000223134004D07B682522412199543B
:1046A0001CE0FB685B8B9BB21A000423134015D0FF
:1046B0007B682522182199547B6800229A837B68A5
:1046C0009B7A002B0AD07B681800134B9847FB6835
:1046D0005B68C02292021A43FB685A607B689B8B1E
:1046E0009AB27B685A837B6825229B5CDBB2052BE0
:1046F0000ED17B6824229B5CDBB2002B04D17B684B
:104700001800064B984703E07B681800044B984755
:10471000C046BD4604B080BDD9440100ED4501004E
:10472000FD44010080B584B000AFF860B960FB1DA6
:104730001A70FB1D1B78FA6802339B00D3180433F0
:10474000BA681A60FB681B7EDBB25AB2FB1D1B788D
:10475000012199400B005BB213435BB2DAB2FB68F4
:104760001A76C046BD4604B080BD000090B587B043
:1047700000AF786039607B681B683B613B685A68B2
:104780007B681A623B685A887B689A837B6824221C
:10479000012199547B682522052199543B691B68A6
:1047A0001B01DB0FDBB21A000F23FB18511E8A41DD
:1047B0001A703B685B7A002B06D03B689A7A7B685C
:1047C000110018003B4B98470F23FB181B78002B58
:1047D0000BD03B685B88012B07D13B695B6880226B
:1047E000D2021A433B695A6005E03B695B68324A72
:1047F0001A403B695A603B681B7A002B45D03B68E6
:104800001B885A003B685B7A9B0313431A00802382
:104810001B021A433B695A621723FC187B68180075
:10482000264B9847030023703B695B68224A1A4075
:104830003B695A601723FB181B78002B07D11723FD
:10484000FC187B6818001E4B984703002370172341
:10485000FB181B78002B14D13B6903229A753B6827
:104860001B881B0A9BB2782213439BB25A003B68F9
:104870005B7A9B031343012213431A003B695A627C
:1048800012E01723FB181B780FE03B6903229A758F
:104890003B681B885B0001221A433B685B7A9B03E1
:1048A00013431A003B695A6200231800BD4607B043
:1048B00090BDC04659AB0100FFFFFBFFFBAA010002
:1048C0009DAA010080B582B000AF786039607B6836
:1048D0009B8B9BB2002B01D005230CE07B6801224F
:1048E0009A727B680122DA723A687B6811001800BC
:1048F000034B984703001800BD4602B080BDC04678
:104900006D47010080B584B000AF786039607B6886
:104910001B68FB603B685B7A002B06D03B689A7A89
:104920007B68110018001E4B9847FB685B681D4AA6
:104930001A40FB685A603B685A687B681A623B6899
:104940005A887B689A837B682422002199547B686B
:10495000252205219954FB6803229A753B681B7A2E
:10496000002B0DD03B681B885A003B685B7A9B0389
:1049700013431A0080231B021A43FB685A6209E0A2
:104980003B681B885A003B685B7A9B0313431A0001
:10499000FB685A6200231800BD4604B080BDC046C3
:1049A00059AB0100FFFFFBFF80B582B000AF78601C
:1049B00039607B689B8B9BB2002B01D005230CE0F8
:1049C0007B6801229A727B680122DA723A687B68FE
:1049D00011001800034B984703001800BD4602B0B1
:1049E00080BDC0460549010080B586B000AF020019
:1049F000FB1D1A70FB1D1A78934B9200D3587B61F4
:104A00007B691B683B613B691B681B01DB0FDBB2E9
:104A10001A000F23FB18511E8A411A700E23FB182F
:104A20007A69527E1A707B691B7EDAB20E23FB18FC
:104A30000E21791809780A401A707B695B8B9BB24A
:104A4000002B09D17B699B8B9BB2002B04D07B6927
:104A500018007E4B984770E07B695B8B9BB2002B04
:104A600039D07B699B8B9BB2002B34D17B6925228B
:104A70009B5CDBB2052B2ED17B6924229B5CDBB2D5
:104A8000002B28D13B6903221A757B6900225A83C7
:104A90007B692522002199547B699B7A002B0BD0DE
:104AA0007B6918006A4B98473B695B68C022920299
:104AB0001A433B695A6002E03B6901221A760E23D1
:104AC000FB181B780122134037D07B69DB687A69B9
:104AD0001000984731E07B695B8B9BB2002B2CD098
:104AE0007B699B8B9BB2002B27D03B695B8B9BB276
:104AF0001A002023134011D10F23FB181B78012229
:104B00005340DBB2002B04D17B699B8B9BB2012B02
:104B100004D07B692522412199540EE07B6924222F
:104B20009B5CDBB2002B04D17B691800494B984792
:104B300003E07B691800484B98477B695B8B9BB20D
:104B4000002B47D07B699B8B9BB2002B42D17B69AA
:104B500025229B5CDBB2052B3CD17B6924229B5C2C
:104B6000DBB2012B36D13B691B7EDBB21A0002237C
:104B7000134002D03B6902221A763B6903221A7560
:104B80007B6900225A837B692522002199540E23D8
:104B9000FB181B78022213400BD07B6924229B5CFC
:104BA000DBB2012B05D17B691B697A69100098473C
:104BB00010E00E23FB181B78012213400AD07B69FA
:104BC00024229B5CDBB2002B04D17B69DB687A6911
:104BD000100098477B6925229B5CDBB2052B2ED009
:104BE0007B6925229B5CDBB2002B28D03B6903222A
:104BF0001A757B6900225A837B6900229A837B693C
:104C000025229B5CDBB2412B0ED07B699B7A002B6B
:104C10000AD07B6918000E4B98473B695B68E0221D
:104C2000D2021A433B695A600E23FB181B780422F8
:104C3000134004D07B695B697A6910009847C046CD
:104C4000BD4606B080BDC0461C5C00206946010020
:104C5000D9440100ED450100FD44010080B500AFDD
:104C6000BFF34F8F024B034ADA60BFF34F8FFEE76B
:104C700000ED00E00400FA0580B500AF024B984754
:104C8000C046BD4680BDC0465D4C010080B586B0C3
:104C900000AF78609A4B18009A4B98479A4B1800CF
:104CA000984B9847994B1800964B9847984B18008B
:104CB000944B9847974B1800924B9847964B180087
:104CC000904B9847954B18008E4B98471723FB182D
:104CD00000221A70924B1800924B98470322002131
:104CE0000120914B98470200904B1A608F4B1B6834
:104CF000002B07D18E4B190003208E4B98470020C4
:104D00008D4B98470C23FB1818008C4B98470C23AD
:104D1000FB181B780A2B04D00C23FB181B780D2BD7
:104D200037D1874B18007F4B9847864B00221A706B
:104D3000854B00221A708549854B31221800854B1E
:104D40009847834B31220021995483497F4B642239
:104D50001800824B984703003B617F4B6322002180
:104D600099547D4B18006F4B98473B69002BECD151
:104D70001723FB1800221A70744B322200211800EE
:104D8000774B9847744B642200211800744B984766
:104D9000B5E06C4B1B78002B59D06B4B1B78032B69
:104DA0000CD8694B1B785A1CD1B2674A11701A0093
:104DB0000C23FB1819786B4B995405E0614B0022CA
:104DC0001A70614B00221A705F4B1B78012B99D926
:104DD000654A644B11001800644B9847031E2FD09E
:104DE00063495A4B1B221800624B9847574B1800D7
:104DF0004C4B98471723FB1800221A70534B322252
:104E000000211800564B98475149504B3122180049
:104E1000504B98474D4B1800574B98470300302B89
:104E200006D84B4B1800544B98470300DAB200E009
:104E300031221723FB181A70444B1800394B98473E
:104E4000404B00221A70404B00221A705AE70C2384
:104E5000FB181B780D2B00D154E70C23FB181B7893
:104E6000082B04D00C23FB181B787F2B1CD10823A4
:104E7000FB18424A12681A600823FB181800294BD5
:104E800098471723FB181B78002B37D01723FB18E4
:104E90001A781723FB18013A1A701723FB181B788E
:104EA0002A4A0021D15429E00C23FB181B781B2B24
:104EB00006D1244B01221A70234B00221A7021E7DD
:104EC0001723FB181B78312B0ED81723FB181B78E0
:104ED0000C22BA1811781D4AD1541723FB181A78DE
:104EE0001723FB1801321A700C23FB1800225A708A
:104EF0000C23FB1818000B4B984703E7C04601E74B
:104F0000C89E0300A1AC0100989E0300B89E030058
:104F1000F89E0300D89E0300E89E0300A89E0300AD
:104F2000F89B0300C50B020065D20100504700202A
:104F30009C9D0300B10C020051F00100814F010063
:104F4000BC9D030024040020250400205C040020F4
:104F500028040020EF8803009004002011AD010018
:104F600007850300F4040020C09D030009880300A6
:104F7000C49D0300C5870300BF880300CC9D0300C8
:104F800080B584B000AF78607B6818000C4B984700
:104F90000300FB600DE00B4B1A6801235B42190014
:104FA0001000094B98477B681800054B9847030091
:104FB000FB60FB680133EED0C046BD4604B080BD47
:104FC000610C0200504700201DE2010080B500AFD7
:104FD0000A4B00221A600A4B1B68084A110018008D
:104FE000084B9847054B1B68002B03D0064B8022CB
:104FF00052051A60C046BD4680BDC046F804002078
:105000005047002095DB010004ED00E0B0B58CB006
:1050100002AFF860B9607A601F23FB1800221A7093
:1050200000237B62494B984703003B621F23FA1819
:105030003B6A11001800464B98471F23FB181B784A
:10504000002B78D0434B062200211800424B984792
:10505000404A3B6A11001800404B984703007B62AE
:105060007B6A002B60D13B4B00229B5E18003C4BBF
:105070009847021C3B4B1A60364B02229B5E18007D
:10508000374B9847021C374B5A60324B04229B5EC9
:105090001800334B9847021C324B9A60314B1A6808
:1050A000314B101C984705002E4B5A682E4B101C94
:1050B000984704002B4B9A682B4B101C9847030011
:1050C0002A4AB968F868019300942B00284CA0473D
:1050D000244B1A68244B101C984703001AB214235F
:1050E000FB181A801F4B5A681F4B101C984703006F
:1050F0001AB21423FB185A801A4B9A681A4B101CC8
:10510000984703001AB21423FB189A801423FB1843
:1051100000229A711423FB189C22DA711423FB18C5
:105120001800144B98470CE0134AB968FB68180044
:105130000F4B984705E0114AB968FB6818000C4B03
:10514000984700231800BD460AB0B0BD158901007C
:105150009D860100FC04002007850300D98601001C
:10516000E982010004050020216A0300D09D0300AC
:1051700061870300E5A20100F49D0300249E030063
:1051800090B589B000AFF860B9607A601B23FB1856
:1051900000221A70284B98470300FB611B23FA1862
:1051A000FB6911001800254B98471B23FB181B783F
:1051B000002B3BD0224B00221A80214AFB691100B0
:1051C0001800204B98471E4B00229B5E18001E4B78
:1051D0009847021C1D4B1A601C4B1A681C4B101C74
:1051E000984703001B4AB968F8681B4CA047102376
:1051F000FB1800221A801023FB1800225A8010236B
:10520000FB1800229A801023FB1800229A710F4B82
:105210001A680F4B101C984703005AB21023FB1852
:10522000DA711023FB1818000C4B98470023180064
:10523000BD4609B090BDC0461589010079830100C3
:1052400010050020B5830100218301001405002012
:10525000216A0300349E030061870300E5A2010078
:1052600090B587B000AFF860B9607A601623FB187C
:1052700000221A701523FB1800221A701423FB1841
:1052800001221A701723FB1800221A701723FC182A
:105290001423FA181523F9181623FB181800044BC9
:1052A00098470300237000231800BD4607B090BD47
:1052B0003D77010090B587B000AFF860B9607A60C3
:1052C0001723FB181B221A701723FB181B78084A98
:1052D00008480F21084CA047064AB968FB68180027
:1052E000054B984700231800BD4607B090BDC04647
:1052F0004C9E0300140400206187030080B584B035
:1053000000AFF860B9607A600220034B9847002331
:105310001800BD4604B080BDB1A2010080B584B0C4
:1053200000AFF860B9607A60034B9847002318001B
:10533000BD4604B080BDC046794C010090B58FB029
:1053400000AFF860B9607A601823FB1800221A7069
:105350001823FB1800225A701823FB1800221A7019
:105360001823FB1800225A701C23FB1800221A7005
:105370001C23FB181422BA189A601C23FB18012264
:10538000DA811C23FB181822BA185A601C23FB1858
:1053900001229A812A4B18002A4B984700237B63ED
:1053A00042E07B6B284A29480F21294CA047274B14
:1053B0001800244B984700233B632BE07B6BDAB249
:1053C0003B6BDBB2D318DAB21C23FB181A701C2318
:1053D000FB186422642118001E4B98470300FB62EF
:1053E000FB6A002B0CD11C23FB181B781A4A1748A8
:1053F0000F21174CA047154B1800124B984706E099
:10540000124B164A1A60114B18000E4B98473B6B13
:1054100001333B633B6B0F2BD0DD114B1800094B65
:1054200098477B6B10337B637B6B7F2BB9DD0C4B19
:105430001800044B984700231800BD460FB090BDDC
:10544000549E0300C50B0200889E03001404002034
:105450006187030091810100909E03005820200085
:10546000BC9D0300B0B584B000AF78607B681B685A
:105470009847031E06D07B689B69824A10009847B4
:105480000123FAE07B689D680F23FC180D23FA18AE
:105490000123FF215720A847030023700F23FB1887
:1054A0001B78002B09D07B689B69774A10009847CE
:1054B0007B685B6898470423DFE00D23FB181B78AB
:1054C000152B09D07B689B69704A100098477B6850
:1054D0005B6898470423D0E07B689D680F23FC1825
:1054E0000E23FA18012309215720A847030023702F
:1054F0000F23FB181B78002B09D07B689B69644A3B
:10550000100098477B685B6898470523B5E00E2339
:10551000FB181B7840229343DAB20E23FB181A7053
:105520000E23FB181B7840221343DAB20E23FB181C
:105530001A707B68DD680F23FC180E23FA1801230C
:1055400009215720A847030023700F23FB181B785D
:10555000002B09D07B689B694E4A100098477B68F6
:105560005B689847052388E07B685B690A20984759
:105570007B689D680F23FC180E23FA18012309216C
:105580005720A847030023700F23FB181B78002B1C
:1055900009D07B689B693E4A100098477B685B682E
:1055A0009847052369E00E23FB181B781A00402357
:1055B000134009D07B689B69374A100098477B6885
:1055C0005B689847052358E00E23FB1800221A70E9
:1055D0007B68DD680F23FC180E23FA1801230621CF
:1055E0005720A847030023700F23FB181B78002BBC
:1055F00009D07B689B69294A100098477B685B68E3
:105600009847062339E07B68DD680F23FC180E23DA
:10561000FA18012304215720A847030023700F2301
:10562000FB181B78002B09D07B689B691C4A100073
:1056300098477B685B68984706231EE07B68DD68B7
:105640000F23FC180E23FA18012305215720A84721
:10565000030023700F23FB181B78002B09D07B68F5
:105660009B69104A100098477B685B68984706233F
:1056700003E07B6801221A7700231800BD4604B0BE
:10568000B0BDC046089F0300249F0300449F030051
:10569000609F0300849F0300AC9F0300C89F03002A
:1056A000F49F030020A00300B0B584B000AF786081
:1056B0007B68002B01D1022358E07B681B7F012B04
:1056C00001D0032352E07B689D680F23FC180E2352
:1056D000FA18012309215720A847030023700F233C
:1056E000FB181B78002B06D07B689B69214A1000B1
:1056F000984704233AE00E23FB181B787F221340BF
:10570000DAB20E23FB181A700E23FB181B788022C6
:1057100052421343DAB20E23FB181A707B68DD681D
:105720000F23FC180E23FA18012309215720A8473C
:10573000030023700F23FB181B78002B06D07B6817
:105740009B690D4A1000984704230FE07B685B6853
:105750009847031E06D07B689B69084A100098474B
:10576000012303E07B6800221A7700231800BD465E
:1057700004B0B0BD609F0300849F03004CA00300F1
:10578000F0B5C64600B5B2B000AFF862B9627A6251
:105790003B62FB6A9B68984663232022BA18D6189E
:1057A0002F232022BA18D218012305215720C047E1
:1057B00003003370632320229446BC4463441B7867
:1057C000002B07D0FB6A9B69DD4A10009847012334
:1057D00001F0ACF9A32320229446BC446344002288
:1057E0001A702F2320229446BC4463441B78002B5C
:1057F00006D0A32320229446BC44634404221A709A
:10580000FB6A9B68984663232022BA18D6182E2379
:105810002022BA18D218012306215720C0470300BE
:105820003370632320229446BC4463441B78002BCE
:1058300007D0FB6A9B69C34A10009847012301F017
:1058400075F9FB6A9B68984663232022BA18D6181C
:105850002D232022BA18D218012304215720C04733
:1058600003003370632320229446BC4463441B78B6
:10587000002B07D0FB6A9B69B34A100098470123AD
:1058800001F054F92D2320229446BC4463441A7835
:105890002E2320218C46BC4463441B789A4213D9A2
:1058A0002D2320229446BC44634419782E232022C1
:1058B0009446BC4463441A78A62320208446BC4402
:1058C00063448A1A1A7014E02D2320229446BC44A3
:1058D00063441A782E2320218C46BC4463441B78F1
:1058E000D31ADAB2A62320218C46BC44634420326A
:1058F0001A703B6A1A78A62320218C46BC44634464
:105900001978101CC2B2CBB29A4200D9081CC2B29C
:105910003B6A1A70FB6A9B68984663232022BA1878
:10592000D6182F232022BA18D21801230921572074
:10593000C04703003370632320229446BC44634471
:105940001B78002B07D0FB6A9B69804A10009847A0
:10595000012301F0EBF82F2320229446BC4463443A
:105960001A78622320218C46BC44634407210A40F4
:105970001A70622320229446BC4463441B78022B95
:1059800007D1A72320229446BC44634403221A7003
:1059900027E0622320229446BC4463441B78032BF7
:1059A00007D1A72320229446BC44634406221A70E0
:1059B00017E0622320229446BC4463441B78072BE3
:1059C00007D1A72320229446BC44634406221A70C0
:1059D00007E0FB6A9B695E4A10009847052301F0C7
:1059E000A5F8FB6A9B68984663232022BA18D6184C
:1059F0002F232022BA18D21801230A215720C0478A
:105A000003003370632320229446BC4463441B7814
:105A1000002B07D0FB6A9B694E4A10009847012370
:105A200001F084F82F2320229446BC4463441B7861
:105A300003221340DAB22F2320218C46BC44634456
:105A40001A702F2320229446BC4463441B78002BF9
:105A500007D1A52320229446BC44634403221A7034
:105A600026E02F2320229446BC4463441B78012B5C
:105A700007D1A52320229446BC44634402221A7015
:105A800016E02F2320229446BC4463441B78022B4B
:105A900007D1A52320229446BC44634401221A70F6
:105AA00006E0A52320229446BC44634400221A70D9
:105AB000FB6A9B69284A100098470023FB67FB6A32
:105AC0009B689846FB6A243319003B6A1B789BB29B
:105AD000A72220208446BC446244127892B25343E9
:105AE0009BB263222020381886180A00072157200D
:105AF000C04703003370FB6A5B69C8209847FB6AA4
:105B000024229B5C1A04FB6A25215B5C1B02134365
:105B1000FA6A2621525C1343BB67BB6F9B039B0B46
:105B2000BB67A52320229446BC4463441B78BA6F0C
:105B30001A411300BB67BB6F084A934210DCBEE7F3
:105B40001CA1030048A1030070A10300609F030093
:105B50009CA10300B8A10300DCA1030020BF020048
:105B6000C046FB6A9B69B14A10009847FB6A9B6973
:105B7000AF4A10009847FB6A5B69FA225201100095
:105B800098471E237B677B6F6A467A605A1E3A6786
:105B90001A003A6100227A61386979690200D20EEE
:105BA0000E007601FE61FE691643FE61020052019D
:105BB000BA611A00BA600022FA60B868F968020097
:105BC000D20E0E0075011543020054019B000333F1
:105BD0000733DB08DB006A46D31A9D466B46033366
:105BE0009B089B00FB6600239C2220218C46BC4422
:105BF000624413600023982220218C46BC446244F6
:105C0000136000238C2220218C46BC446244136024
:105C1000884B882220218C46BC44624413600023B8
:105C2000842220218C46BC446244136080232022BD
:105C30009446BC44634400221A704B2320229446AD
:105C4000BC44634414221A7000237B668123202203
:105C50009446BC44634400221A7082232022944656
:105C6000BC44634400221A70832320229446BC441F
:105C7000634400221A7000239C22BA18136000F0BB
:105C80002CFC0023902220218C46BC4462441360EB
:105C90000023942220218C46BC4462441360FB6A9A
:105CA0009D68FB6A243319003B6A1B789BB2A722CC
:105CB00020208446BC446244127892B253439BB283
:105CC00063222020381884180A0007215720A8478B
:105CD00003002370632320229446BC4463441B7852
:105CE000002B07D0FB6A9B69534A10009847012399
:105CF00000F01AFFA42320229446BC4463440022EF
:105D00001A70622320229446BC4463441B78022B01
:105D100000D093E0A42320229446BC446344197825
:105D2000A42320229446BC4463441A7813005B00E9
:105D30009B18FA6A2420D3181B181B781804A42374
:105D400020229446BC4463441A7813005B009B18DD
:105D50000133FA6A2424D3181B191B781B02184339
:105D6000A42320229446BC4463441A7813005B00A9
:105D70009B180233FA6A2424D3181B191B780200DB
:105D80001A438B00A8218C4620218846B844C4447D
:105D90006344803B1A60A42320229446BC4463449D
:105DA0001978A42320229446BC4463441B789B00AA
:105DB000A822944620229046B844C4446344803BC1
:105DC0001B689B039A0B8B00A8218C4620218846D8
:105DD000B844C4446344803B1A60A4232022944600
:105DE000BC4463441978A42320229446BC446344F1
:105DF0001B789B00A822944620229046B844C444B5
:105E00006344803B1A68A52320208446BC44634435
:105E10001B78DA408B00A8218C4620218846B844A4
:105E2000C4446344803B1A6024E1C04604A20300DA
:105E300030A20300007C924854A20300A423202235
:105E40009446BC4463441978A42320229446BC445D
:105E500063441A7813005B009B185B001800FB6A10
:105E600024221B189B181B781804A4232022944674
:105E7000BC4463441A7813005B009B185B00013339
:105E8000FA6A2424D3181B191B781B021843A42375
:105E900020229446BC4463441A7813005B009B188C
:105EA0005B000233FA6A2424D3181B191B78020002
:105EB0001A438B00A8218C4620218846B844C4444C
:105EC0006344803B1A60A42320229446BC4463446C
:105ED0001978A42320229446BC4463441B789B0079
:105EE000A822944620229046B844C4446344803B90
:105EF0001B689B039A0B8B00A8218C4620218846A7
:105F0000B844C4446344803B1A60A42320229446CE
:105F1000BC4463441978A42320229446BC446344BF
:105F20001B789B00A822944620229046B844C44483
:105F30006344803B1A68A52320208446BC44634404
:105F40001B78DA408B00A8218C4620218846B84473
:105F5000C4446344803B1A60A42320229446BC447A
:105F600063441978A42320229446BC4463441A78DD
:105F700013005B009B185B000333FA6A2420D318DC
:105F80001B181B781804A42320229446BC446344A5
:105F90001A7813005B009B185B000433FA6A242410
:105FA000D3181B191B781B021843A42320229446E4
:105FB000BC4463441A7813005B009B185B000533F4
:105FC000FA6A2424D3181B191B7802001A438B0089
:105FD000A8218C4620218846B844C4446344843BAD
:105FE0001A60A42320229446BC4463441978A42355
:105FF00020229446BC4463441B789B00A82294460C
:1060000020229046B844C4446344843B1B689B03ED
:106010009A0B8B00A8218C4620218846B844C444A2
:106020006344843B1A60A42320229446BC44634406
:106030001978A42320229446BC4463441B789B0017
:10604000A822944620229046B844C4446344843B2A
:106050001A68A52320208446BC4463441B78DA4098
:106060008B00A8218C4620218846B844C444634450
:10607000843B1A60982320229446BC4463441A68E7
:10608000E14B796F100098470B001A00A4232021E0
:106090008C46BC4463441B789B00A8218C4620217D
:1060A0008846B844C4446344803B1B681900FB6EB7
:1060B0009200D150982320229446BC4463441A682D
:1060C0007B6F9A423DDA982320229446BC44634475
:1060D0001B680133982220218C46BC446244136023
:1060E000832320229446BC446344832220218C468F
:1060F000BC44624412781A70822320229446BC4425
:106100006344822220218C46BC44624412781A7077
:10611000812320229446BC446344812220218C4662
:10612000BC44624412781A70802320229446BC44F6
:106130006344802220218C46BC44624412781A7049
:10614000CBE100239C2220218C46BC446244136096
:1061500029E0FB6E9C2220218C46BC4462441268DC
:106160009200D258A94B10009847021CA84B111C52
:10617000942220208446BC44624410689847031C43
:10618000942220218C46BC44624413609C2320222C
:106190009446BC4463441B6801339C2220218C46F6
:1061A000BC44624413609C2320229446BC44634454
:1061B0001A687B6F9A42CCDB944B786F9847021C2D
:1061C000944B111C942220208446BC4462441068E5
:1061D0009847031C942220218C46BC4462441360DF
:1061E00000239C2220218C46BC446244136040E082
:1061F000FB6E9C2220218C46BC44624412689200B3
:10620000D258824B10009847021C834B94212020C7
:106210008446BC4461440968101C9847031C3B66D3
:106220007E4B0021386E9847031E04D03B6E8022BF
:106230001206534000E03B6E754A191C9023202043
:106240008446BC44634418689047031C9022202174
:106250008C46BC44624413609C2320229446BC4478
:1062600063441B6801339C2220218C46BC44624459
:1062700013609C2320229446BC4463441A687B6FBD
:106280009A42B5DB832320229446BC4463441B78A6
:10629000002B00D093E082232022BA18D2184B237F
:1062A00020218C46BC44634412781B789A4230D239
:1062B0005B4B902220218C46BC44624411688C22A6
:1062C00020208446BC44624410689847031E06D0D0
:1062D0008C2320229446BC4463441B6805E0902331
:1062E00020229446BC4463441B688C2220218C46A7
:1062F000BC4462441360822320229446BC4463441D
:10630000822220218C46BC446244127801321A70E9
:10631000D6E0434B8C2220218C46BC446244116859
:10632000902220208446BC44624410689847031E93
:1063300000D1C5E0812320229446BC4463448122DD
:1063400020218C46BC446244127801321A708323A7
:1063500020229446BC44634401221A7000238C22FC
:1063600020218C46BC446244136082232022944640
:10637000BC44634400221A700023FB658123202261
:106380009446BC4463441B78012B0ED198232022F1
:106390009446BC4463441B689C22BA181360FB6A91
:1063A0009B69204A100098478AE081232022944666
:1063B000BC4463441B780F2B00D081E098E082231B
:1063C0002022BA18D2184B2320218C46BC446344A7
:1063D00012781B789A4241D2104B902220218C4691
:1063E000BC4462441168882220208446BC44624434
:1063F00010689847031E17D0882320229446BC4477
:1064000063441B6816E0C046D15C0300616A030068
:10641000A55D0300C9600300E9660300015D030098
:10642000295D030080A20300902320229446BC44EF
:1064300063441B68882220218C46BC44624413605C
:10644000822320229446BC446344822220218C462D
:10645000BC446244127801321A7031E0654B8822E4
:1064600020218C46BC44624411689022202084463E
:10647000BC44624410689847031E21D08023202228
:106480009446BC446344802220218C46BC44624430
:10649000127801321A70832320229446BC4463444C
:1064A00000221A70544B882220218C46BC4462443E
:1064B0001360822320229446BC44634400221A7055
:1064C000982320229446BC4463441B6801339822DD
:1064D00020218C46BC4462441360982320229446B9
:1064E000BC4463441B68454A934201DCFFF7C9FB87
:1064F000812320229446BC4463441B780B2B37D95C
:10650000982320229446BC4463441A689C23FB18B9
:106510001B68D21A3A4B10009847021C394B111CC9
:1065200039489847031C1A1C384B3949101C9847A6
:10653000031C1A1C334B3749101C9847031C842238
:1065400020218C46BC4462441360334B84222021BA
:106550008C46BC4462441068984702002F491023BF
:1065600020208446BC44634418002D4B984709E022
:10657000FB6A9B692B4A10009847FB6A9B692A4A71
:106580001000984700239822BA1813603223BB6585
:1065900000239422BA18136000239022BA181360C3
:1065A00000238C22BA18136000238822BA181360C3
:1065B00000238422BA18136000238422BA181360BF
:1065C0005EE200239422BA18136000239022BA18C6
:1065D000136000238C22BA18136000238822BA1893
:1065E000136000239C2220218C46BC44624413602B
:1065F000BCE1C046015D0300007C9248B70B00007F
:10660000616A0300C960030000C82F47A964030042
:10661000000070420000B041216A03008CA2030018
:10662000C587030090A20300B4A20300FB6A9D6823
:10663000FB6A243319003B6A1B789BB2A7222020F7
:106640008446BC446244127892B253439BB26322A4
:106650002020381884180A0007215720A847030073
:106660002370FB6A24229B5C1A04FB6A25215B5C75
:106670001B021343FA6A2621525C13437B65A42351
:1066800020229446BC4463441B787A6D9B00A82169
:106690008C4620218846B844C4446344803B1A6039
:1066A000A42320229446BC4463441978A4232022C6
:1066B0009446BC4463441B789B00A8229446202245
:1066C0009046B844C4446344803B1B689B039A0BC8
:1066D0008B00A8218C4620218846B844C4446344DA
:1066E000803B1A60A42320229446BC44634419785A
:1066F000A42320229446BC4463441B789B00A82218
:10670000944620229046B844C4446344803B1A68AF
:10671000A52320208446BC4463441B78DA408B00C8
:10672000A8218C4620218846B844C4446344803B59
:106730001A60A42320229446BC4463441B78FA6A5E
:106740002721525C1104FA6A2820125C12020A43C3
:10675000F96A2920095C0A439B00A8218C46202164
:106760008846B844C4446344843B1A60A42320226E
:106770009446BC4463441978A42320229446BC4424
:1067800063441B789B00A822944620229046B8447C
:10679000C4446344843B1B689B039A0B8B00A82171
:1067A0008C4620218846B844C4446344843B1A6024
:1067B000A42320229446BC4463441978A4232022B5
:1067C0009446BC4463441B789B00A8229446202234
:1067D0009046B844C4446344843B1A68A5232020EF
:1067E0008446BC4463441B78DA408B00A8218C4665
:1067F00020218846B844C4446344843B1A60A423DF
:1068000020229446BC4463441B789B00A8229446F3
:1068100020229046B844C4446344803B1A68C64B67
:1068200010009847021CC54B111C9422BA1810681E
:106830009847031C9422BA181360A423202294467C
:10684000BC4463441B789B00A822944620229046B7
:10685000B844C4446344843B1A68B74B100098475B
:10686000021CB64B111C9022BA1810689847031CE2
:106870009022BA181360A42320229446BC44634497
:106880001B789B00A822944620229046B844C4441A
:106890006344803B1A68A84B10009847021CA84B21
:1068A0008C2179180968101C9847031E03D08C238B
:1068B000FB181B6813E0A42320229446BC446344C5
:1068C0001B789B00A822944620229046B844C444DA
:1068D0006344803B1A68984B10009847031C8C2235
:1068E000BA181360A42320229446BC4463441B7846
:1068F0009B00A822944620229046B844C444634496
:10690000843B1A688C4B10009847021C8C4B8821E2
:1069100079180968101C9847031E03D08823FB18B8
:106920001B6813E0A42320229446BC4463441B78D4
:106930009B00A822944620229046B844C444634455
:10694000843B1A687C4B10009847031C8822BA18B5
:1069500013609C2320229446BC4463441B6801338B
:106960009C2220218C46BC44624413609C2320223C
:106970009446BC4463441B68312B00DC56E6714BE3
:10698000B86D9847021C704B111C9422BA181068FD
:106990009847031C9422BA1813606A4BB86D984745
:1069A000021C694B111C9022BA1810689847031CEE
:1069B0009022BA181360654B9422BA1811688C2281
:1069C000BA1810689847031C1A1C5F4B9421791859
:1069D0000968101C9847031C1C1C5C4B9022BA18B9
:1069E00011688822BA1810689847031C1A1C564B65
:1069F000902179180968101C9847031C1A1C524BE7
:106A0000111C201C9847031C1A1C514B5149101C87
:106A10009847031C1A1C4D4B111C4F489847031CE8
:106A20003B654E4B4E49386D9847031E01D04C4B89
:106A300000E03B6D3B65434B9822BA1810689847BD
:106A4000021C464B396D101C9847031E0AD03D4B63
:106A50009822BA1810689847021C424B101C98479D
:106A6000030003E03F4B386D984703009822BA18A3
:106A700013608423FB181B6801338422BA18136047
:106A80008423FB181B68022B00DC9AE59823FB1873
:106A90001A683549102320208446BC4463441800FA
:106AA000324B98472F4B842220218C46BC446244B1
:106AB000106898470300DAB2BB6A1A709823FB1873
:106AC0001B68DAB27B6A1A70BB6A1B781A00284905
:106AD000102320208446BC4463441800234B98476D
:106AE000FB6A9B69102220218C46BC446244100042
:106AF00098477B6A1B781A001E4910232020844681
:106B0000BC4463441800194B9847FB6A9B691022E8
:106B100020218C46BC44624410009847A3232022C5
:106B20009446BC4463441B787A6895461800BD4679
:106B300032B004BC9046F0BD016B0300A55D0300BC
:106B4000015D0300616A0300C9600300E966030098
:106B5000A96403000000C8410000DC42295D030075
:106B60000000C842216A03008CA20300C58703000D
:106B7000CCA20300DCA20300B0B586B000AFF86081
:106B80007A600B23FB180A1C1A700B23FB181B7866
:106B9000012B28D1FB689D681723FC181623FA18CF
:106BA000012301215720A847030023701723FB1856
:106BB0001B78002B06D0FB689B69214A1000984780
:106BC000012338E01623FB181B781A000B23FB184F
:106BD0001B781A411300DBB201221340DAB27B6842
:106BE0001A70002327E0FB689D681723FC18162302
:106BF000FA18012300215720A84703002370172308
:106C0000FB181B78002B06D0FB689B690D4A10000F
:106C1000984701230FE01623FB181B781A000B235B
:106C2000FB181B781A411300DBB201221340DAB2C1
:106C30007B681A7000231800BD4606B0B0BDC04680
:106C400098A003006CA00300B0B584B000AF7860DA
:106C500008001100FB1C021C1A70BB1C0A1C1A70D5
:106C6000FB1C1B78012B54D17B689D680F23FC18FB
:106C70000E23FA18012303215720A847030023708D
:106C80000F23FB181B78002B06D07B689B694D4AAD
:106C900010009847012390E0FB1C1B7801229A40CA
:106CA00013005BB2DB435BB20E22BA18127852B209
:106CB00013405BB2DAB20E23FB181A70BB1C1A78B1
:106CC000FB1C1B789A4013005AB20E23FB181B784A
:106CD0005BB213435BB2DAB20E23FB181A707B6807
:106CE000DD680F23FC180E23FA1801230321572017
:106CF000A847030023700F23FB181B78002B06D036
:106D00007B689B69304A10009847012355E00023B7
:106D100053E07B689D680F23FC180E23FA180123AB
:106D200002215720A847030023700F23FB181B786C
:106D3000002B06D07B689B69244A100098470123EA
:106D40003BE0FB1C1B7801229A4013005BB2DB4343
:106D50005BB20E22BA18127852B213405BB2DAB2AA
:106D60000E23FB181A70BB1C1A78FB1C1B789A4068
:106D700013005AB20E23FB181B785BB213435BB2AD
:106D8000DAB20E23FB181A707B68DD680F23FC183B
:106D90000E23FA18012302215720A847030023706D
:106DA0000F23FB181B78002B06D07B689B69084AD1
:106DB00010009847012300E000231800BD4604B0EE
:106DC000B0BDC046E8A2030014A30300B0A30300B3
:106DD000DCA30300B0B584B000AF78600A00FB1CF0
:106DE0001A707B689D680F23FC180E23FA18012384
:106DF00008215720A847030023700F23FB181B7896
:106E0000002B06D07B689B691C4A10009847012321
:106E10002FE00E23FB181B781F221340DAB20E233B
:106E2000FB181A70FB1C1B785B015AB20E23FB186F
:106E30001B785BB213435BB2DAB20E23FB181A70F5
:106E40007B68DD680F23FC180E23FA180123082144
:106E50005720A847030023700F23FB181B78002B33
:106E600006D07B689B69064A10009847012300E022
:106E700000231800BD4604B0B0BDC0463CA50300C9
:106E800060A50300B0B584B000AF78600A00FB1CB9
:106E90001A707B689D680F23FC180E23FA180123D3
:106EA00008215720A847030023700F23FB181B78E5
:106EB000002B06D07B689B691C4A10009847012371
:106EC0002FE00E23FB181B7810229343DAB20E2317
:106ED000FB181A70FB1C1B781B015AB20E23FB18FF
:106EE0001B785BB213435BB2DAB20E23FB181A7045
:106EF0007B68DD680F23FC180E23FA180123082194
:106F00005720A847030023700F23FB181B78002B82
:106F100006D07B689B69064A10009847012300E071
:106F200000231800BD4604B0B0BDC0463CA5030018
:106F300060A50300B0B584B000AF78600A00FB1C08
:106F40001A70FB1C1B780F2B06D97B689B69264A9D
:106F500010009847042343E07B689D680F23FC18CA
:106F60000E23FA18012308215720A8470300237095
:106F70000F23FB181B78002B06D07B689B691B4AEC
:106F80001000984701232BE00E23FB181B780F22DB
:106F90009343DAB20E23FB181A700E23FB181A78EB
:106FA000FB1C1B781343DAB20E23FB181A707B68A4
:106FB000DD680F23FC180E23FA180123082157203F
:106FC000A847030023700F23FB181B78002B06D063
:106FD0007B689B69064A10009847012300E0002364
:106FE0001800BD4604B0B0BD88A503003CA5030051
:106FF00060A50300B0B584B000AF78600A00FB1C48
:107000001A707B68002B01D1022347E07B689D68E2
:107010000F23FC180E23FA18012309215720A84733
:10702000030023700F23FB181B78002B06D07B680E
:107030009B691C4A1000984701232FE00E23FB1880
:107040001B787F221340DAB20E23FB181A70FB1C48
:107050001B78DB015AB20E23FB181B785BB213437B
:107060005BB2DAB20E23FB181A707B68DD680F235F
:10707000FC180E23FA18012309215720A847030002
:1070800023700F23FB181B78002B06D07B689B69AD
:10709000054A10009847012300E000231800BD4670
:1070A00004B0B0BD609F0300849F0300B0B584B0FE
:1070B00000AF78600A00FB1C1A707B689D680F2384
:1070C000FC180E23FA18012309215720A8470300B2
:1070D00023700F23FB181B78002B06D07B689B695D
:1070E0001A4A1000984701232BE00E23FB181B7847
:1070F00007229343DAB20E23FB181A700E23FB18F3
:107100001A78FB1C1B781343DAB20E23FB181A7093
:107110007B68DD680F23FC180E23FA180123092170
:107120005720A847030023700F23FB181B78002B60
:1071300006D07B689B69064A10009847012300E04F
:1071400000231800BD4604B0B0BDC046609F0300D8
:10715000849F0300B0B584B000AF78600A00FB1CC8
:107160001A707B689D680F23FC180E23FA18012300
:107170000A215720A847030023700F23FB181B7810
:10718000002B06D07B689B691C4A1000984701239E
:107190002FE00E23FB181B7860229343DAB20E23F4
:1071A000FB181A70FB1C1B785B015AB20E23FB18EC
:1071B0001B785BB213435BB2DAB20E23FB181A7072
:1071C0007B68DD680F23FC180E23FA1801230A21BF
:1071D0005720A847030023700F23FB181B78002BB0
:1071E00006D07B689B69064A10009847012300E09F
:1071F00000231800BD4604B0B0BDC046B8A10300CE
:10720000ACA50300B0B584B000AF78600A00FB1CE9
:107210001A707B689D680F23FC180E23FA1801234F
:107220000A215720A847030023700F23FB181B785F
:10723000002B06D07B689B691C4A100098470123ED
:107240002FE00E23FB181B781C229343DAB20E2387
:10725000FB181A70FB1C1B789B005AB20E23FB18FC
:107260001B785BB213435BB2DAB20E23FB181A70C1
:107270007B68DD680F23FC180E23FA1801230A210E
:107280005720A847030023700F23FB181B78002BFF
:1072900006D07B689B69064A10009847012300E0EE
:1072A00000231800BD4604B0B0BDC046B8A103001D
:1072B000ACA50300B0B584B000AF78600A00FB1C39
:1072C0001A707B689D680F23FC180E23FA1801239F
:1072D0000A215720A847030023700F23FB181B78AF
:1072E000002B06D07B689B691A4A1000984701233F
:1072F0002BE00E23FB181B7803229343DAB20E23F4
:10730000FB181A700E23FB181A78FB1C1B7813430A
:10731000DAB20E23FB181A707B68DD680F23FC18A5
:107320000E23FA1801230A215720A84703002370CF
:107330000F23FB181B78002B06D07B689B69064A3D
:1073400010009847012300E000231800BD4604B058
:10735000B0BDC046B8A10300ACA50300B0B584B071
:1073600000AF78600A00FB1C1A707B68DD680F2391
:10737000FC18FA1C01230C215720A8470300237096
:107380000F23FB181B78002B06D07B689B69054AEE
:1073900010009847012300E000231800BD4604B008
:1073A000B0BDC046D4A50300B0B584B000AF7860CE
:1073B0000A00FB1C1A707B68DD680F23FC18FA1C9E
:1073C00001230D215720A847030023700F23FB182A
:1073D0001B78002B06D07B689B69054A10009847F4
:1073E000012300E000231800BD4604B0B0BDC04634
:1073F00020A6030090B583B000AFFC1DB44B012163
:107400001800B44B984703002370FB1D1B78002B1A
:1074100009D0B14B1800B14B9847AD4B1800B04B99
:10742000984701234FE1FC1DA94B00211800AD4BEB
:10743000984703002370FB1D1B78002B09D0AA4B33
:107440001800A64B9847A24B1800A54B984701235C
:1074500039E1FC1D9E4B01211800A44B9847030005
:107460002370FB1D1B78002B09D0A14B18009B4BF0
:107470009847974B18009A4B9847012323E1FC1D2E
:10748000934B0F2118009B4B984703002370FB1D63
:107490001B78002B09D0984B1800904B98478C4BC9
:1074A00018008F4B984701230DE1FC1D884B0321E9
:1074B0001800924B984703002370FB1D1B78002B8C
:1074C00009D08F4B1800854B9847814B1800844B8F
:1074D00098470123F7E0FC1D7D4B02211800894BE2
:1074E000984703002370FB1D1B78002B09D0864BA7
:1074F00018007A4B9847764B1800794B9847012330
:10750000E1E0FC1D724B01211800804B98470300FD
:107510002370FB1D1B78002B09D07D4B18006F4B8F
:1075200098476B4B18006E4B98470123CBE0FC1D2E
:10753000674B03211800774B984703002370FB1D0E
:107540001B78002B09D0744B1800644B9847604B94
:107550001800634B98470123B5E0FC1D5C4B6F217D
:1075600018006E4B984703002370FB1D1B78002BFF
:1075700009D06B4B1800594B9847554B1800584B86
:10758000984701239FE0FC1D514B6F211800654B6C
:10759000984703002370FB1D1B78002B09D0624B1A
:1075A00018004E4B98474A4B18004D4B9847012303
:1075B00089E0FC1D464B0122072118005B4B9847D0
:1075C00003002370FB1D1B78002B09D0584B1800BB
:1075D000424B98473E4B1800414B9847012372E0BD
:1075E000FC1D3B4B002206211800504B984703001E
:1075F0002370FB1D1B78002B09D04D4B1800374B17
:107600009847334B1800364B984701235BE0FC1D2D
:107610002F4B012205211800444B9847030023708B
:10762000FB1D1B78002B09D0414B18002B4B9847B2
:10763000274B18002A4B9847012344E0FC1D244B9C
:10764000012201211800394B984703002370FB1DCC
:107650001B78002B09D0364B1800204B98471C4B49
:1076600018001F4B984701232DE0FC1D184B0021EB
:107670001800184B984703002370FB1D1B78002B44
:1076800009D0154B1800154B9847114B1800144B97
:107690009847012317E0FC1DBA1D0D4B0721180068
:1076A000244B984703002370FB1D1B78002B09D047
:1076B000214B1800094B9847054B1800084B984779
:1076C000012300E000231800BD4603B090BDC04672
:1076D00054470020F56F010028A703005D790100E1
:1076E000A9560100D56D010048A70300856E010071
:1076F00078A70300356F01009CA70300AD7001005F
:10770000C4A7030055710100E0A703000572010042
:1077100008A80300B572010030A803005D730100E2
:1077200058A80300A973010088A80300496C010050
:10773000B8A80300796B0100DCA80300B0B586B0DF
:1077400000AFF860B9607A601723FB1800221A7046
:107750001723FC187B68BA68F9681148114DA847CF
:1077600003002370FB681B78092B03D81723FB1831
:107770001B7811E0FB681A781423FB181A70BB6899
:107780001A781423FB185A701423FB181800064BA0
:1077900098471723FB181B781800BD4606B0B0BDEC
:1077A000544700208157010011A3010080B500AFAC
:1077B0000F4BE422002118000E4B98470C4B0E4A49
:1077C0001A600B4B0D4A5A60094B0D4A9A60084BE0
:1077D0000C4ADA60064B0C4A5A61054B0B4A9A6117
:1077E000034B18000A4B984703001800BD4680BDA4
:1077F0005447002007850300157801002178010017
:107800002D78010099780100417901005D7901002E
:107810006554010080B500AF00231800BD4680BD4F
:1078200080B500AF00231800BD4680BD90B587B07D
:1078300000AF040008003A601900FB1D221C1A70FA
:10784000BB1D021C1A703B1D0A1C1A800823FB1862
:10785000FA1D12781A700823FB18BA1D5A60082303
:10786000FB180122DA810823FB183A689A60082382
:10787000FB183A1D12889A810823FB186422002104
:107880001800044B98470300DBB21800BD4607B050
:1078900090BDC0467D80010090B599B000AF040056
:1078A00008003A601900FB1D221C1A70BB1D021C47
:1078B0001A703B1D0A1C1A801C23FB18BA1D127873
:1078C0001A705E23FB1800221A8013E05E23FB1857
:1078D0001B8801335E22BA18128839688A18117819
:1078E0001C22BA18D1545E23FB181A885E23FB1899
:1078F00001321A805E23FA183B1D12881B889A42B7
:10790000E4D30C23FB18FA1D12781A700C23FB1811
:107910001C22BA185A603B1D1B8801339AB20C23F3
:10792000FB18DA810C23FB1864211800034B9847DD
:107930000300DBB21800BD4619B090BDA57F010061
:1079400080B582B000AF78607B681800024B984722
:10795000C046BD4602B080BDB13002000FB490B544
:10796000C3B000AF8E235B00FB187B607C688C2368
:107970005B00FB181A68802359000823F8182300BD
:10798000084CA0470823FB181800074B9847074BE3
:107990001800054B9847C046BD4643B090BC08BC94
:1079A00004B01847F98A0300C50B020004A90300BC
:1079B00080B582B000AF0200FB1D1A70064BFA1DA5
:1079C000127811001F220A40012191400A001A601A
:1079D000C046BD4602B080BD00E100E080B584B085
:1079E00000AF78607B681B68FB60FB68DB6907227F
:1079F00013405A1E9341DBB21800BD4604B080BD4F
:107A000080B582B000AF7860C0467B681800044B38
:107A10009847031EF9D1C046BD4602B080BDC0469E
:107A2000DD79010080B582B000AF78607B686422A8
:107A30001A607B681B4A5A607B6800229A607B68E8
:107A400000221A737B6800221A767B6880229203D8
:107A50001A617B6801225242DA827B68012252421B
:107A60009A827B680022DA617B6800221A627B6856
:107A70002422002199547B6800229A627B682C2280
:107A8000002199547B682D22002199547B682E2275
:107A9000002199547B68D7221A86C046BD4602B0A1
:107AA00080BDC046480D000080B584B000AF78604E
:107AB0007B681B68BB600023FB607B681800144B6D
:107AC0009847BB681B6802221A43BB681A607B6830
:107AD0001B6818000F4B9847030018000E4B98477F
